:0408000002EF37F0DC
:106DF6001174016E9EA8FED701C0ADFF1200F60EFB
:106E0600F66E6D0EF76E000EF86E0900F5CF5BF0AC
:106E16000900F5CF5CF0000EF86E000157EF37F071
:106E26000A500B10D8B418D0010E0C6E04D0D890AE
:106E36000A360B360C2A0BAEFAD70A50085C0B50F2
:106E46000958D8A004D00A50085E0B50095AD890A9
:106E56000B320A320C2EF1D708C008F009C009F02F
:106E6600120001C009F002C00AF003C00BF004C012
:106E76000CF005500610D8A405D0000E076E000EC3
:106E8600086E04D005C007F006C008F007C00DF074
:106E960008C00EF020EE09F000EE01F0050EDBCF83
:106EA600EBFFE806FCE212009468B00EAB6E240E0F
:106EB600AC6E120EAF6E5BC037F05CC038F00B0ED6
:106EC6003A6EC50E396E0BEC38F020EE55F0050E15
:106ED600EBCFDBFFE806FCE2550E536E000E546E58
:106EE60053C01BF054C01CF05BC01DF05CC01EF00C
:106EF600A8EC37F000EF04F0000E066E000E056EEB
:106F060003500410D8B41CD0010E076E04D0D890DC
:106F160003360436072A04AEFAD7D8900536063665
:106F26000350015C04500258D8A005D00350015EFE
:106F36000450025A0580D89004320332072EEDD74A
:106F460005C001F006C002F012005DD0E00E0D6E25
:106F56007F0E0E6E1BC0D9FF1CC0DAFFDECF0FF00E
:106F6600DDCF10F020EE02F01B50D9261C50DA229D
:106F7600DECF11F0DDCF12F099EC38F01BC0D9FF4F
:106F86001CC0DAFFDECF1FF0DDCF20F0FF0E1F247E
:106F9600226EFF0E2020236E14D0FC0E0D6E7F0E87
:106FA6000E6E22501D241F6E23501E20206E1FC001
:106FB600F6FF20C0F7FF0800F5500F6E106A99EC37
:106FC60038F0224A232A20EE02F01B50D9261C5004
:106FD600DA222250DE5CDE50800A216E2350800ABF
:106FE6002158D8B0DAD7F90E0D6E7F0E0E6E99ECD9
:106FF60038F020EE04F01B50D9261C50DA22DECFE2
:107006001BF0DDCF1CF01B501C10D8B412009ED70D
:10701600000E026E000E016E000E046E010E036E6F
:10702600000E056E000E066E34EC37F020EE48F0CA
:10703600050EEBCFDBFFE806FCE239C042F03AC0B2
:1070460043F05AD042C044F043C045F042C046F037
:1070560043C047F0440E246E000E256E460E266E83
:10706600000E276E37C028F038C029F039C02AF044
:107076003AC02BF0480E2C6E000E2D6E3AEC39F00D
:10708600FF0E4224446EFF0E4320456E42C046F07A
:1070960043C047F0445037243D6E455038203E6E7D
:1070A6003DC0F6FF3EC0F7FF0800F5CF3FF0465063
:1070B6003724406E47503820416E40C0F6FF41C02D
:1070C600F7FF0800F5503F18D8A416D0440E246EDA
:1070D600000E256E460E266E000E276E37C028F06F
:1070E60038C029F039C02AF03AC02BF0480E2C6E71
:1070F600000E2D6E3AEC39F042503D6E43503E6E16
:10710600010E425E000E435A3EBE06D03E509AE144
:10711600020E3D5CD8B096D720EE48F000EE37F070
:10712600050EDBCFEBFFE806FCE212000F0E166E33
:10713600000E176E8FD0250E1A18D8B404D01A5028
:10714600FCEC36F087D0000E146E0ED016C0D9FFB8
:1071560017C0DAFFDF501A6E020E1626000E17222F
:107166001A50FCEC36F076D00DC0F6FF0EC0F7FFD5
:107176000D4A0E2A0800F5CF1AF01A50000AD8B4A4
:107186001200630AD8B4E2D7070AD8B403D00D0AAE
:10719600D8A4E6D716C0D9FF17C0DAFFDECF18F09D
:1071A600DDCF19F0020E1626000E172219AE06D0F4
:1071B600030E1412186C191ED8B0192A010E1A6E75
:1071C600050E1A18D8B412D01A50020D070EF32461
:1071D600F66E740EF420F76E0900F550185C09007F
:1071E600F5501958D8A002D01A2AEAD714C013F0BD
:1071F600030E1316D8B403D02D0EFCEC36F01AC0CD
:1072060015F024D01550020D070EF324F66E740EF9
:10721600F420F76E0900F5CF03F00A00F5CF04F06D
:1072260018C001F019C002F07FEC37F001C008F079
:1072360002C009F0000E0B6E0A0E0A6E13EC37F050
:107246000850300F1A6E1A50FCEC36F01506152849
:10725600D8A4D8D70DC0F6FF0EC0F7FF0D4A0E2AE8
:107266000800F5CF1AF01A50D8B4120064D70ED021
:1072760024C0D9FF25C0DAFFDE06000EDD5A26C07F
:10728600D9FF27C0DAFFDE2A000EDD2224C0D9FF8F
:1072960025C0DAFFDECF2EF0DDCF2FF028C030F08C
:1072A60029C031F02E5030262F50312230C0F6FF43
:1072B60031C0F7FF0800F5CF32F026C0D9FF27C04E
:1072C600DAFFDECF33F0DDCF34F028C035F029C049
:1072D60036F0335035263450362235C0F6FF36C0E8
:1072E600F7FF0800F5503218D8A41BD024C0D9FFE8
:1072F60025C0DAFF010EDBBE14D0010EDB5003E120
:10730600DE04D8A00ED026C0D9FF27C0DAFF2A5047
:10731600DE5CDE50800A306E2B50800A3058D8A0D2
:10732600A7D724C0D9FF25C0DAFFDE2A000EDD224A
:1073360026C0D9FF27C0DAFFDE06000EDD5A26C0BA
:10734600D9FF27C0DAFFDECF2EF0DDCF2FF024C025
:10735600D9FF25C0DAFFDECF30F0DDCF31F0301EA9
:10736600311E304A312A2E5030262F50312220EE3F
:1073760002F02C50D9262D50DA22DECF32F0DDCFA6
:1073860033F02CC0D9FF2DC0DAFFDECF34F0DDCFCD
:1073960035F0341E351E344A352A325034263350E1
:1073A60035223050345C3550800A366E3150800AB2
:1073B6003658D8B0120024C0D9FF25C0DAFF2CC039
:1073C600E1FF2DC0E2FFDECFE6FFDDCFE5FF26C001
:1073D600D9FF27C0DAFF10EE02F02C50E1262D501F
:1073E600E222DECFE6FFDDCFE5FF2CC01BF02DC08D
:1073F6001CF028C01DF029C01EF0A8EC37F01200C2
:107406000001000A006400E80310276E6F746E6FB7
:107416006161616262626173646667686A6B6C6C03
:107426006B6A6867666473617162786268616367D4
:1074360075796173646667686A6B6C6173646667A5
:10744600686A6B6C6C6B6A686766647361676161B6
:1074560061737373646464666666676767686868A1
:107466006868686767676666666464647373736191
:1074760061616364626876772076736E6A73766894
:107486006976626B6A6677206E7668626A71656293
:10749600687165666E77626B6A77666568676A7734
:1074A6006B6E776E766B6268767768626B77666509
:1074B6006E2C7677626A6B7677686B6A7766656E2E
:1074C60077766B68776665756B66776E77687566CF
:1074D600773437686634776B6E65716E757165667D
:1074E600656B66656B7568667165686B66716577F1
:1074F6006B667177656B6862667771796577686BBD
:1075060077656668756671697579676161616262DA
:10751600626173646667686A6B6C6C6B6A686766DF
:1075260064736171627862686163677579636462C6
:107536006876772076736E6A7376686976626B6AA8
:107546006677206E7668626A716562687165666ED6
:1075560077626B6A77666568676A776B6E776E7651
:107566006B6268767768626B7766656E2C76776293
:107576006A6B7677686B6A7766656E77766B68771F
:107586006665756B66776E77687566773437686695
:1075960034776B6E65716E75716566656B66656B66
:1075A6007568667165686B667165776B6671776518
:1075B6006B6862667771796577686B7765666875FB
:1075C6006671697579676161616262626173646639
:1075D60067686A6B6C6C6B6A686766647361716214
:1075E6007862686163677579636462687677207626
:1075F600736E6A7376686976626B6A6677206E76F2
:1076060068626A716562687165666E77626B6A77D1
:10761600666568676A776B6E776E766B6268767793
:1076260068626B7766656E2C7677626A6B767768CA
:107636006B6A7766656E77766B68776665756B6677
:10764600776E77687566773437686634776B6E65FC
:10765600716E75716566656B66656B756866716575
:10766600686B667165776B667177656B686266775E
:1076760071796577686B776566687566716975791E
:10768600676161616262626173646667686A6B6C96
:107696006C6B6A686766647361716278626861635D
:1076A6006775796364626876772076736E6A737637
:1076B600686976626B6A6677206E7668626A71655B
:1076C60062687165666E77626B6A77666568676A17
:1076D600776B6E776E766B6268767768626B7766C5
:1076E600656E2C7677626A6B7677686B6A77666505
:1076F6006E77766B68776665756B66776E77687595
:1077060066773437686634776B6E65716E7571654A
:1077160066656B66656B7568667165686B667165CF
:10772600776B667177656B6862667771796577687E
:107736006B7765666875667169757967616161629F
:1077460062626173646667686A6B6C6C6B6A6867B1
:107756006664736171627862686163677579636490
:10776600626876772076736E6A7376686976626B7E
:107776006A6677206E7668626A71656268716566A8
:107786006E77626B6A77666568676A776B6E776E27
:10779600766B6268767768626B7766656E2C76774D
:1077A600626A6B7677686B6A7766656E77766B6802
:1077B600776665756B66776E776875667734376852
:1077C6006634776B6E65716E75716566656B666539
:1077D6006B7568667165686B667165776B667177E0
:1077E600656B6862667771796577686B77656668D9
:1077F60075667169757967616161626262617364F8
:107806006667686A6B6C6C6B6A68676664736171DD
:107816006278626861636775796364626876772007
:1078260076736E6A7376686976626B6A6677206EBF
:107836007668626A716562687165666E77626B6AA0
:1078460077666568676A776B6E776E766B62687661
:107856007768626B7766656E2C7677626A6B767789
:10786600686B6A7766656E77766B68776665756B43
:1078760066776E77687566773437686634776B6EC9
:1078860065716E75716566656B66656B7568667143
:1078960065686B667165776B667177656B6862663E
:1078A6007771796577686B776566687566716975EE
:1078B60079676C68666C6B6A64686C6B666A61682B
:1078C600736C6B6A66686C6B6A6661686B6C736A0C
:1078D6006668616C6B736A66686B6A7368666C6B04
:1078E60061736A68666C6B6A6866646C6B6A686604
:1078F6006C6B616A736468666C6B6A617368646CEE
:107906006B666A6168736C6B64666A686C6B6173DC
:10791600646A66686C6B61736A6466686C6B616ADC
:10792600736466686C6B61736A6466686C6B7361BA
:107936006A66686C6B616A7366686C6B7364616AAD
:1079460066686C6B6A61736466686C6B6173646AA3
:1079560066686C6B6A6466686C6B616A2C63762C0D
:1079660078636E62762C6D62642C6D7662716B6ADA
:1079760067666571697567646677726B6B64676A5B
:1079860066626F77656C726B67646A667672776536
:107996006B2C6A6466686C656B2E646A6866766CC6
:1079A600776B652E6A7364666C2E6B6A73646862A5
:1079B600666C766B6A64732C62766C6B2E6A2C68C6
:1079C6007364666C2E6A65686473666C2E72776A79
:1079D600686473676C2E6B76726864676C6B6A6535
:1079E600686473676C766B2E6A676473626C6B6A25
:1079F60067646867666C6B652E6A736664686C712B
:107A0600772E656C736166686C7165776A66686CFB
:107A160065776B6A73646766626C65726B6A6473BA
:107A26006266766B7265712C6A736264666B716BE3
:107A36002C6A67616473666C716B6A7767646673D8
:107A46006C716B65776A6473666C6B712E656A77A9
:107A5600676173666C697571656B676A7364626684
:107A66006C636B7162736478632C6D66677773639E
:107A7600676F326633777964686C72746777766499
:107A86006873616C666AC3A76878627368687673A0
:107A9600646168666C6B6A776571696F7262657638
:107AA6006468736B6677656C696F676575777675FD
:107AB600647361686B667771C3A7676F7765626980
:107AC6007664686273206768626664766968736262
:107AD60077656B726C74346F676275667966677208
:107AE600686E68206A66647673686665726866752D
:107AF600697662676A7472656977737568676472B6
:107B0600687569736468666267766C6173656A68CE
:107B1600726A69657775736864626E72656B3562E1
:107B2600746A7265696468656569726864697375A3
:107B3600687268646973696A786E646B776C736B74
:107B4600616A6A6B736F616A687369736F7765726E
:107B56006866646B6F776572666863626E6A66767E
:107B660063686462666A766F636468626676686391
:107B76006964686662766364697268666276636E73
:107B86006A72626776636A646A63686278736F783A
:107B9600646A7364626E6B6C636B786A73626E732D
:107BA600646B7772626A6664696A6E656A69776A27
:107BB60068646369696A6862656662766A696F663F
:107BC600656A666262206A666F65706F656A667668
:107BD6006264696F776F64696A766264776F6F64EF
:107BE6006A766364696F77646A68766369646F73DB
:107BF6006F736B6A636E736F6F73646A63766869BB
:107C0600646F7769646A687669646F69646A7668BE
:107C16006864696F69646A6376686369646F6964D6
:107C26006A6876696F776964667668646F73646399
:107C36007668677472356E656F6430666768696A00
:107C460067726577307378696A64622072746A66EF
:107C56006F632D7873776F33656872767467206209
:107C660066646B7370646F6B666A766E626E6A6367
:107C760069646F73776569726A74676276686A6346
:107C86006978737577686776617A787963757669E6
:107C96006F676C747265736B6A6862786366626A32
:107CA600646F6463766A6E64736F65726966766321
:107CB600787573686566696F766378736A656964F3
:107CC6006F63786F73776B6A656478736F656A66DE
:107CD600766A636B6F6465726A74676E76636B6CE3
:107CE60064656F69726A746E6766636D6C656B72E4
:107CF6006E66636F6569726A6669636F6465696AF1
:107D060072686266646E6B6C657267687662632021
:107D160064656F7072746776696375646877657297
:107D2600746F677062707663646A77686875726983
:107D36007467306276666F7269346A68357475671F
:107D4600306672697535746766696F7269746A67D9
:107D560066646F6572696A66646F656B726A66648B
:107D6600696A657268666A646A6872666972686674
:107D760069687266696472666A646A6B67766B6361
:107D860074676A6F62766A64667670636975776C23
:107D9600687376C3A764616C77656C6764736461A6
:107DA60077717465696773642E7477717567736428
:107DB6006A6265776A6F6A766373646A6277657505
:107DC60064736A6B656B776A6973647576686577E1
:107DD6006A746875626664686577746775696673E0
:107DE60064656867667564657577696473657769E0
:107DF6006667656972336966726A7266696865661E
:107E060079676566796567796667657275677268A9
:107E1600676A69676F74686E6271737177646364A9
:107E2600656676667267626774686E756A6D6B6999
:107E36006C70C3A7706C6B69756A6D6A68796862E5
:107E46006772667666656667686E6A696A68677489
:107E5600686A6B6C706C2C6CC3A7706C6D6E6A690B
:107E6600756862766774796776636472746664723D
:107E7600647377736171776478736566636465723A
:107E86006667766674686279756D6A696F2E6C6F5F
:107E960070C3A73B2E2C6D6A686776647773787318
:107EA60071617A737863646466767467686D6A6B09
:107EB6002C6F6C2EC3A770C3A7C3A770C3A72E6C65
:107EC6002E6C696B2C756A6D6A79686E6879686E56
:107ED6006879686E746762677266767266666566EA
:107EE6007665646364657871617A61710941776B5F
:107EF600646A6B77646A776A64776F6A66696F65C6
:107F060069666A696F6669686A646F6A65646F6ADA
:107F160065666F6A6566696F776A646A636F6F77AD
:107F2600636F6A666B6F346A67696F6A696F6676D4
:107F36006A696F68353975686779387967726779FC
:107F46006663386475686568667663646A6A636BD7
:107F56006A726A656F7064666A6874346A656466B4
:107F66006F676A7434656F646F696A74346F6463CB
:107F76006F66696A7265776F73706B6672656F6438
:107F86006F6A666F697467696F666F65696A77732A
:107F96006F6F72777367743465736F666F65696A3E
:107FA60077736F6F72777367743465736F6B65720F
:107FB6007467766C6B6D6577697364696774726AEA
:107FC60065776B6F6466696A776D6C65726F6667F5
:107FD600696A7472656B726767006C6F3A205B251D
:107FE600645D2068693A205B25645D2070616C3AA7
:0A7FF600205B005D0A002563000017
:00000001FF
