:0400000020EF37F0C6
:106E3E001200000EF86E000146EF37F00A500B10EC
:106E4E00D8B418D0010E0C6E04D0D8900A360B367A
:106E5E000C2A0BAEFAD70A50085C0B500958D8A072
:106E6E0004D00A50085E0B50095AD8900B320A32E1
:106E7E000C2EF1D708C008F009C009F01200270E39
:106E8E00376E740E386E0B0E3A6EB80E396E16ECF7
:106E9E0038F020EE55F0050EEBCFDBFFE806FCE2F6
:106EAE00550E536E000E546E53C01BF054C01CF0A2
:106EBE00270E1D6E740E1E6EB3EC37F000EF00F051
:106ECE0001C009F002C00AF003C00BF004C00CF0C0
:106EDE0005500610D8A405D0000E076E000E086EE1
:106EEE0004D005C007F006C008F007C00DF008C0BA
:106EFE000EF020EE09F000EE01F0050EDBCFEBFFF9
:106F0E00E806FCE21200000E066E000E056E03503F
:106F1E000410D8B41CD0010E076E04D0D8900336DE
:106F2E000436072A04AEFAD7D89005360636035033
:106F3E00015C04500258D8A005D00350015E0450E5
:106F4E00025A0580D89004320332072EEDD705C0C1
:106F5E0001F006C002F012005DD0E00E0D6E7F0E45
:106F6E000E6E1BC0D9FF1CC0DAFFDECF0FF0DDCFD7
:106F7E0010F020EE02F01B50D9261C50DA22DECF84
:106F8E0011F0DDCF12F0A4EC38F01BC0D9FF1CC0FD
:106F9E00DAFFDECF1FF0DDCF20F0FF0E1F24226EB2
:106FAE00FF0E2020236E14D0FC0E0D6E7F0E0E6E83
:106FBE0022501D241F6E23501E20206E1FC0F6FF70
:106FCE0020C0F7FF0800F5500F6E106AA4EC38F0E1
:106FDE00224A232A20EE02F01B50D9261C50DA2218
:106FEE002250DE5CDE50800A216E2350800A21582A
:106FFE00D8B0DAD7F90E0D6E7F0E0E6EA4EC38F007
:10700E0020EE04F01B50D9261C50DA22DECF1BF0E6
:10701E00DDCF1CF01B501C10D8B412009ED7000EF2
:10702E00026E000E016E000E046E010E036E000E57
:10703E00056E000E066E67EC37F020EE48F0050E7A
:10704E00EBCFDBFFE806FCE239C042F03AC043F07A
:10705E005AD042C044F043C045F042C046F043C04F
:10706E0047F0440E246E000E256E460E266E000E60
:10707E00276E37C028F038C029F039C02AF03AC040
:10708E002BF0480E2C6E000E2D6E45EC39F0FF0ED7
:10709E004224446EFF0E4320456E42C046F043C06C
:1070AE0047F0445037243D6E455038203E6E3DC06B
:1070BE00F6FF3EC0F7FF0800F5CF3FF046503724ED
:1070CE00406E47503820416E40C0F6FF41C0F7FF7A
:1070DE000800F5503F18D8A416D0440E246E000EAA
:1070EE00256E460E266E000E276E37C028F038C06D
:1070FE0029F039C02AF03AC02BF0480E2C6E000E43
:10710E002D6E45EC39F042503D6E43503E6E010EF1
:10711E00425E000E435A3EBE06D03E509AE1020E2B
:10712E003D5CD8B096D720EE48F000EE37F0050E55
:10713E00DBCFEBFFE806FCE212000F0E166E000E20
:10714E00176E8FD0250E1A18D8B404D01A501FEC13
:10715E0037F087D0000E146E0ED016C0D9FF17C0B0
:10716E00DAFFDF501A6E020E1626000E17221A5084
:10717E001FEC37F076D00DC0F6FF0EC0F7FF0D4AAC
:10718E000E2A0800F5CF1AF01A50000AD8B41200D1
:10719E00630AD8B4E2D7070AD8B403D00D0AD8A42C
:1071AE00E6D716C0D9FF17C0DAFFDECF18F0DDCF55
:1071BE0019F0020E1626000E172219AE06D0030E77
:1071CE001412186C191ED8B0192A010E1A6E050E5B
:1071DE001A18D8B412D01A50020D1D0EF324F66EE2
:1071EE00740EF420F76E0900F550185C0900F55086
:1071FE001958D8A002D01A2AEAD714C013F0030ED9
:10720E001316D8B403D02D0E1FEC37F01AC015F09C
:10721E0024D01550020D1D0EF324F66E740EF420BC
:10722E00F76E0900F5CF03F00A00F5CF04F018C091
:10723E0001F019C002F08AEC37F001C008F002C06C
:10724E0009F0000E0B6E0A0E0A6E25EC37F0085090
:10725E00300F1A6E1A501FEC37F015061528D8A4E9
:10726E00D8D70DC0F6FF0EC0F7FF0D4A0E2A080044
:10727E00F5CF1AF01A50D8B4120064D70ED024C02D
:10728E00D9FF25C0DAFFDE06000EDD5A26C0D9FF73
:10729E0027C0DAFFDE2A000EDD2224C0D9FF25C06A
:1072AE00DAFFDECF2EF0DDCF2FF028C030F029C070
:1072BE0031F02E5030262F50312230C0F6FF31C023
:1072CE00F7FF0800F5CF32F026C0D9FF27C0DAFF4E
:1072DE00DECF33F0DDCF34F028C035F029C036F0E4
:1072EE00335035263450362235C0F6FF36C0F7FF00
:1072FE000800F5503218D8A41BD024C0D9FF25C0E1
:10730E00DAFF010EDBBE14D0010EDB5003E1DE040A
:10731E00D8A00ED026C0D9FF27C0DAFF2A50DE5CD7
:10732E00DE50800A306E2B50800A3058D8A0A7D776
:10733E0024C0D9FF25C0DAFFDE2A000EDD2226C0CA
:10734E00D9FF27C0DAFFDE06000EDD5A26C0D9FFB0
:10735E0027C0DAFFDECF2EF0DDCF2FF024C0D9FF0D
:10736E0025C0DAFFDECF30F0DDCF31F0301E311E1A
:10737E00304A312A2E5030262F50312220EE02F084
:10738E002C50D9262D50DA22DECF32F0DDCF33F05D
:10739E002CC0D9FF2DC0DAFFDECF34F0DDCF35F0B3
:1073AE00341E351E344A352A325034263350352297
:1073BE003050345C3550800A366E3150800A365863
:1073CE00D8B0120024C0D9FF25C0DAFF2CC0E1FFCF
:1073DE002DC0E2FFDECFE6FFDDCFE5FF26C0D9FFF1
:1073EE0027C0DAFF10EE02F02C50E1262D50E222DB
:1073FE00DECFE6FFDDCFE5FF2CC01BF02DC01CF06D
:10740E0028C01DF029C01EF0B3EC37F012000001A9
:10741E00000A006400E803102700000000000000CE
:10742E00000000000000000000000000000000004E
:10743E00000000000000000000000000000000003E
:10744E00000000000000000000000000000000002E
:10745E00000000000000000000000000000000001E
:107FDE0000006C6F3A205B25645D2068693A205B77
:107FEE0025645D2070616C3A205B005D0A0025639C
:027FFE00000081
:00000001FF
