:04000000E3EF06F034
:100800000001000A006400E80310276C6F3A205BC7
:1008100025645D2068693A205B25645D2070616C09
:0B0820003A205B005D0A002563000029
:10082C000ED024C0D9FF25C0DAFFDE06000EDD5A3B
:10083C0026C0D9FF27C0DAFFDE2A000EDD2226C033
:10084C00D9FF27C0DAFFDECF2EF0DDCF2FF02E50F0
:10085C002824D96E2F502920DA6E24C0E1FF25C040
:10086C00E2FFE6CF31F0E5CF32F031502824E16ED3
:10087C0032502920E26EDE50E618D8A41BD024C0DA
:10088C00D9FF25C0DAFF010EDBBE14D0010EDB5000
:10089C0003E1DE04D8A00ED026C0D9FF27C0DAFFB2
:1008AC002A50DE5CDE50800A306E2B50800A3058A5
:1008BC00D8A0B7D724C0D9FF25C0DAFFDE2A000E96
:1008CC00DD2226C0D9FF27C0DAFFDE06000EDD5A76
:1008DC0026C0D9FF27C0DAFFDECF2EF0DDCF2FF0F8
:1008EC0024C0D9FF25C0DAFFDECF30F0DDCF31F0E8
:1008FC00301E311E304A312A2E5030262F503122D4
:10090C0020EE02F02C50D9262D50DA22DECF32F018
:10091C00DDCF33F02CC0D9FF2DC0DAFFDECF34F0A1
:10092C00DDCF35F0341E351E344A352A325034268C
:10093C00335035223050345C3550800A366E31508D
:10094C00800A3658D8B0120024C0D9FF25C0DAFF6F
:10095C002CC0E1FF2DC0E2FFDECFE6FFDDCFE5FFCF
:10096C0026C0D9FF27C0DAFF10EE02F02C50E1268A
:10097C002D50E222DECFE6FFDDCFE5FF2CC01BF0D1
:10098C002DC01CF028C01DF029C01EF0F2EC05F0A3
:10099C0012000F0E166E000E176E8FD0250E1A1841
:1009AC00D8B404D01A50F2EC06F087D0000E146EB6
:1009BC000ED016C0D9FF17C0DAFFDF501A6E020E28
:1009CC001626000E17221A50F2EC06F076D00DC047
:1009DC00F6FF0EC0F7FF0D4A0E2A0800F5CF1AF0ED
:1009EC001A50000AD8B41200630AD8B4E2D7070A26
:1009FC00D8B403D00D0AD8A4E6D716C0D9FF17C0B7
:100A0C00DAFFDECF18F0DDCF19F0020E1626000E3D
:100A1C00172219AE06D0030E1412186C191ED8B07A
:100A2C00192A010E1A6E050E1A18D8B412D01A50C3
:100A3C00020D010EF324F66E080EF420F76E090079
:100A4C00F550185C0900F5501958D8A002D01A2A94
:100A5C00EAD714C013F0030E1316D8B403D02D0E1E
:100A6C00F2EC06F01AC015F024D01550020D010E50
:100A7C00F324F66E080EF420F76E0900F5CF03F0A0
:100A8C000A00F5CF04F018C001F019C002F052ECC6
:100A9C0006F001C008F002C009F0000E0B6E0A0E41
:100AAC000A6EC2EC06F00850300F1A6E1A50F2ECB7
:100ABC0006F015061528D8A4D8D70DC0F6FF0EC021
:100ACC00F7FF0D4A0E2A0800F5CF1AF01A50D8B4C9
:100ADC00120064D7000E026E000E016E000E046E42
:100AEC00010E036E000E056E000E066E9FEC06F0F6
:100AFC0020EE45F0050EEBCFDBFFE806FCE239C03B
:100B0C003FF03AC040F04ED03FC041F040C042F000
:100B1C003FC043F040C044F0410E246E000E256EE1
:100B2C00430E266E000E276E37C028F038C029F011
:100B3C0039C02AF03AC02BF0450E2C6E000E2D6EEB
:100B4C0016EC04F0FF0E3F24416EFF0E4020426E67
:100B5C003FC043F040C044F043503724D96E44505A
:100B6C003820DA6E41503724E16E42503820E26E64
:100B7C00DE50E618D8A416D0410E246E000E256E59
:100B8C00430E266E000E276E37C028F038C029F0B1
:100B9C0039C02AF03AC02BF0450E2C6E000E2D6E8B
:100BAC0016EC04F03F503D6E40503E6E010E3F5E21
:100BBC00000E405A3EBE06D03E50A6E1020E3D5CF1
:100BCC00D8B0A2D720EE45F000EE37F0050EDBCF03
:100BDC00EBFFE806FCE212005AD00B0E0D6E080E6D
:100BEC000E6E1BC0D9FF1CC0DAFFDECF0FF0DDCFBD
:100BFC0010F020EE02F01B50D9261C50DA22DECF6A
:100C0C0011F0DDCF12F0CFEC04F01BC0D9FF1CC0EB
:100C1C00DAFFDECF1FF0DDCF20F0FF0E1F24226E97
:100C2C00FF0E2020236E11D0270E0D6E080E0E6EB7
:100C3C0022501D24D96E23501E20DA6EDF501F6EF9
:100C4C001F500F6E106ACFEC04F0224A232A20EEBC
:100C5C0002F01B50D9261C50DA222250DE5CDE50EA
:100C6C00800A216E2350800A2158D8B0DDD7240E7B
:100C7C000D6E080E0E6ECFEC04F020EE04F01B503F
:100C8C00D9261C50DA22DECF1BF0DDCF1CF01B5016
:100C9C001C10D8B41200A1D7000E066E000E056E03
:100CAC0003500410D8B41CD0010E076E04D0D89099
:100CBC0003360436072A04AEFAD7D8900536063622
:100CCC000350015C04500258D8A005D00350015EBB
:100CDC000450025A0580D89004320332072EEDD707
:100CEC0005C001F006C002F01200000EE8CF8BF236
:100CFC00D30E376E060E386E0B0E3A6EB80E396E7A
:100D0C0070EC05F020EE52F0050EEBCFDBFFE806A1
:100D1C00FCE2520E506E000E516E50C01BF051C0D2
:100D2C001CF0D30E1D6E060E1E6EF2EC05F000EFDD
:100D3C0000F001C009F002C00AF003C00BF004C0BF
:100D4C000CF005500610D8A405D0000E076E000E4E
:100D5C00086E04D005C007F006C008F007C00DF0FF
:100D6C0008C00EF020EE09F000EE01F0050EDBCF0E
:100D7C00EBFFE806FCE212000A500B10D8B418D0B6
:100D8C00010E0C6E04D0D8900A360B360C2A0BAE22
:100D9C00FAD70A50085C0B500958D8A004D00A5056
:100DAC00085E0B50095AD8900B320A320C2EF1D730
:100DBC0008C008F009C009F0120006EED3F011EEDD
:100DCC002DF0EE6AE550E150FCE1E250FAE1000E44
:0A0DDC00F86E00017BEF06F0120034
:00000001FF
